{
	"data": {
		"bytecode": {
			"linkReferences": {},
			"object": "6080604052348015600e575f5ffd5b506109478061001c5f395ff3fe608060405234801561000f575f5ffd5b5060043610610055575f3560e01c8063092a1820146100595780636057361d1461008a578063b05784b8146100a6578063b2ac62ef146100c4578063e1b3202a146100f4575b5f5ffd5b610073600480360381019061006e91906102d7565b610110565b604051610081929190610381565b60405180910390f35b6100a4600480360381019061009f91906102d7565b6101c5565b005b6100ae6101da565b6040516100bb91906103af565b60405180910390f35b6100de60048036038101906100d991906104f4565b6101e2565b6040516100eb91906103af565b60405180910390f35b61010e6004803603810190610109919061053b565b61020f565b005b6002818154811061011f575f80fd5b905f5260205f2090600202015f91509050805f01805461013e906105c2565b80601f016020809104026020016040519081016040528092919081815260200182805461016a906105c2565b80156101b55780601f1061018c576101008083540402835291602001916101b5565b820191905f5260205f20905b81548152906001019060200180831161019857829003601f168201915b5050505050908060010154905082565b6005816101d2919061061f565b5f8190555050565b5f5f54905090565b6001818051602081018201805184825260208301602085012081835280955050505050505f915090505481565b6002604051806040016040528084815260200183815250908060018154018082558091505060019003905f5260205f2090600202015f909190919091505f820151815f01908161025f91906107f2565b506020820151816001015550508060018360405161027d91906108fb565b9081526020016040518091039020819055505050565b5f604051905090565b5f5ffd5b5f5ffd5b5f819050919050565b6102b6816102a4565b81146102c0575f5ffd5b50565b5f813590506102d1816102ad565b92915050565b5f602082840312156102ec576102eb61029c565b5b5f6102f9848285016102c3565b91505092915050565b5f81519050919050565b5f82825260208201905092915050565b8281835e5f83830152505050565b5f601f19601f8301169050919050565b5f61034482610302565b61034e818561030c565b935061035e81856020860161031c565b6103678161032a565b840191505092915050565b61037b816102a4565b82525050565b5f6040820190508181035f830152610399818561033a565b90506103a86020830184610372565b9392505050565b5f6020820190506103c25f830184610372565b92915050565b5f5ffd5b5f5ffd5b7f4e487b71000000000000000000000000000000000000000000000000000000005f52604160045260245ffd5b6104068261032a565b810181811067ffffffffffffffff82111715610425576104246103d0565b5b80604052505050565b5f610437610293565b905061044382826103fd565b919050565b5f67ffffffffffffffff821115610462576104616103d0565b5b61046b8261032a565b9050602081019050919050565b828183375f83830152505050565b5f61049861049384610448565b61042e565b9050828152602081018484840111156104b4576104b36103cc565b5b6104bf848285610478565b509392505050565b5f82601f8301126104db576104da6103c8565b5b81356104eb848260208601610486565b91505092915050565b5f602082840312156105095761050861029c565b5b5f82013567ffffffffffffffff811115610526576105256102a0565b5b610532848285016104c7565b91505092915050565b5f5f604083850312156105515761055061029c565b5b5f83013567ffffffffffffffff81111561056e5761056d6102a0565b5b61057a858286016104c7565b925050602061058b858286016102c3565b9150509250929050565b7f4e487b71000000000000000000000000000000000000000000000000000000005f52602260045260245ffd5b5f60028204905060018216806105d957607f821691505b6020821081036105ec576105eb610595565b5b50919050565b7f4e487b71000000000000000000000000000000000000000000000000000000005f52601160045260245ffd5b5f610629826102a4565b9150610634836102a4565b925082820190508082111561064c5761064b6105f2565b5b92915050565b5f819050815f5260205f209050919050565b5f6020601f8301049050919050565b5f82821b905092915050565b5f600883026106ae7fffffffffffffffffffffffffffffffffffffffffffffffffffffffffffffffff82610673565b6106b88683610673565b95508019841693508086168417925050509392505050565b5f819050919050565b5f6106f36106ee6106e9846102a4565b6106d0565b6102a4565b9050919050565b5f819050919050565b61070c836106d9565b610720610718826106fa565b84845461067f565b825550505050565b5f5f905090565b610737610728565b610742818484610703565b505050565b5b818110156107655761075a5f8261072f565b600181019050610748565b5050565b601f8211156107aa5761077b81610652565b61078484610664565b81016020851015610793578190505b6107a761079f85610664565b830182610747565b50505b505050565b5f82821c905092915050565b5f6107ca5f19846008026107af565b1980831691505092915050565b5f6107e283836107bb565b9150826002028217905092915050565b6107fb82610302565b67ffffffffffffffff811115610814576108136103d0565b5b61081e82546105c2565b610829828285610769565b5f60209050601f83116001811461085a575f8415610848578287015190505b61085285826107d7565b8655506108b9565b601f19841661086886610652565b5f5b8281101561088f5784890151825560018201915060208501945060208101905061086a565b868310156108ac57848901516108a8601f8916826107bb565b8355505b6001600288020188555050505b505050505050565b5f81905092915050565b5f6108d582610302565b6108df81856108c1565b93506108ef81856020860161031c565b80840191505092915050565b5f61090682846108cb565b91508190509291505056fea2646970667358221220711ca41a2215aefdeb41efd4fb07396e14dfd9d301231a52c19b9617a045038964736f6c634300081e0033",
			"opcodes": "PUSH1 0x80 PUSH1 0x40 MSTORE CALLVALUE DUP1 ISZERO PUSH1 0xE JUMPI PUSH0 PUSH0 REVERT JUMPDEST POP PUSH2 0x947 DUP1 PUSH2 0x1C PUSH0 CODECOPY PUSH0 RETURN INVALID PUSH1 0x80 PUSH1 0x40 MSTORE CALLVALUE DUP1 ISZERO PUSH2 0xF JUMPI PUSH0 PUSH0 REVERT JUMPDEST POP PUSH1 0x4 CALLDATASIZE LT PUSH2 0x55 JUMPI PUSH0 CALLDATALOAD PUSH1 0xE0 SHR DUP1 PUSH4 0x92A1820 EQ PUSH2 0x59 JUMPI DUP1 PUSH4 0x6057361D EQ PUSH2 0x8A JUMPI DUP1 PUSH4 0xB05784B8 EQ PUSH2 0xA6 JUMPI DUP1 PUSH4 0xB2AC62EF EQ PUSH2 0xC4 JUMPI DUP1 PUSH4 0xE1B3202A EQ PUSH2 0xF4 JUMPI JUMPDEST PUSH0 PUSH0 REVERT JUMPDEST PUSH2 0x73 PUSH1 0x4 DUP1 CALLDATASIZE SUB DUP2 ADD SWAP1 PUSH2 0x6E SWAP2 SWAP1 PUSH2 0x2D7 JUMP JUMPDEST PUSH2 0x110 JUMP JUMPDEST PUSH1 0x40 MLOAD PUSH2 0x81 SWAP3 SWAP2 SWAP1 PUSH2 0x381 JUMP JUMPDEST PUSH1 0x40 MLOAD DUP1 SWAP2 SUB SWAP1 RETURN JUMPDEST PUSH2 0xA4 PUSH1 0x4 DUP1 CALLDATASIZE SUB DUP2 ADD SWAP1 PUSH2 0x9F SWAP2 SWAP1 PUSH2 0x2D7 JUMP JUMPDEST PUSH2 0x1C5 JUMP JUMPDEST STOP JUMPDEST PUSH2 0xAE PUSH2 0x1DA JUMP JUMPDEST PUSH1 0x40 MLOAD PUSH2 0xBB SWAP2 SWAP1 PUSH2 0x3AF JUMP JUMPDEST PUSH1 0x40 MLOAD DUP1 SWAP2 SUB SWAP1 RETURN JUMPDEST PUSH2 0xDE PUSH1 0x4 DUP1 CALLDATASIZE SUB DUP2 ADD SWAP1 PUSH2 0xD9 SWAP2 SWAP1 PUSH2 0x4F4 JUMP JUMPDEST PUSH2 0x1E2 JUMP JUMPDEST PUSH1 0x40 MLOAD PUSH2 0xEB SWAP2 SWAP1 PUSH2 0x3AF JUMP JUMPDEST PUSH1 0x40 MLOAD DUP1 SWAP2 SUB SWAP1 RETURN JUMPDEST PUSH2 0x10E PUSH1 0x4 DUP1 CALLDATASIZE SUB DUP2 ADD SWAP1 PUSH2 0x109 SWAP2 SWAP1 PUSH2 0x53B JUMP JUMPDEST PUSH2 0x20F JUMP JUMPDEST STOP JUMPDEST PUSH1 0x2 DUP2 DUP2 SLOAD DUP2 LT PUSH2 0x11F JUMPI PUSH0 DUP1 REVERT JUMPDEST SWAP1 PUSH0 MSTORE PUSH1 0x20 PUSH0 KECCAK256 SWAP1 PUSH1 0x2 MUL ADD PUSH0 SWAP2 POP SWAP1 POP DUP1 PUSH0 ADD DUP1 SLOAD PUSH2 0x13E SWAP1 PUSH2 0x5C2 JUMP JUMPDEST DUP1 PUSH1 0x1F ADD PUSH1 0x20 DUP1 SWAP2 DIV MUL PUSH1 0x20 ADD PUSH1 0x40 MLOAD SWAP1 DUP2 ADD PUSH1 0x40 MSTORE DUP1 SWAP3 SWAP2 SWAP1 DUP2 DUP2 MSTORE PUSH1 0x20 ADD DUP3 DUP1 SLOAD PUSH2 0x16A SWAP1 PUSH2 0x5C2 JUMP JUMPDEST DUP1 ISZERO PUSH2 0x1B5 JUMPI DUP1 PUSH1 0x1F LT PUSH2 0x18C JUMPI PUSH2 0x100 DUP1 DUP4 SLOAD DIV MUL DUP4 MSTORE SWAP2 PUSH1 0x20 ADD SWAP2 PUSH2 0x1B5 JUMP JUMPDEST DUP3 ADD SWAP2 SWAP1 PUSH0 MSTORE PUSH1 0x20 PUSH0 KECCAK256 SWAP1 JUMPDEST DUP2 SLOAD DUP2 MSTORE SWAP1 PUSH1 0x1 ADD SWAP1 PUSH1 0x20 ADD DUP1 DUP4 GT PUSH2 0x198 JUMPI DUP3 SWAP1 SUB PUSH1 0x1F AND DUP3 ADD SWAP2 JUMPDEST POP POP POP POP POP SWAP1 DUP1 PUSH1 0x1 ADD SLOAD SWAP1 POP DUP3 JUMP JUMPDEST PUSH1 0x5 DUP2 PUSH2 0x1D2 SWAP2 SWAP1 PUSH2 0x61F JUMP JUMPDEST PUSH0 DUP2 SWAP1 SSTORE POP POP JUMP JUMPDEST PUSH0 PUSH0 SLOAD SWAP1 POP SWAP1 JUMP JUMPDEST PUSH1 0x1 DUP2 DUP1 MLOAD PUSH1 0x20 DUP2 ADD DUP3 ADD DUP1 MLOAD DUP5 DUP3 MSTORE PUSH1 0x20 DUP4 ADD PUSH1 0x20 DUP6 ADD KECCAK256 DUP2 DUP4 MSTORE DUP1 SWAP6 POP POP POP POP POP POP PUSH0 SWAP2 POP SWAP1 POP SLOAD DUP2 JUMP JUMPDEST PUSH1 0x2 PUSH1 0x40 MLOAD DUP1 PUSH1 0x40 ADD PUSH1 0x40 MSTORE DUP1 DUP5 DUP2 MSTORE PUSH1 0x20 ADD DUP4 DUP2 MSTORE POP SWAP1 DUP1 PUSH1 0x1 DUP2 SLOAD ADD DUP1 DUP3 SSTORE DUP1 SWAP2 POP POP PUSH1 0x1 SWAP1 SUB SWAP1 PUSH0 MSTORE PUSH1 0x20 PUSH0 KECCAK256 SWAP1 PUSH1 0x2 MUL ADD PUSH0 SWAP1 SWAP2 SWAP1 SWAP2 SWAP1 SWAP2 POP PUSH0 DUP3 ADD MLOAD DUP2 PUSH0 ADD SWAP1 DUP2 PUSH2 0x25F SWAP2 SWAP1 PUSH2 0x7F2 JUMP JUMPDEST POP PUSH1 0x20 DUP3 ADD MLOAD DUP2 PUSH1 0x1 ADD SSTORE POP POP DUP1 PUSH1 0x1 DUP4 PUSH1 0x40 MLOAD PUSH2 0x27D SWAP2 SWAP1 PUSH2 0x8FB JUMP JUMPDEST SWAP1 DUP2 MSTORE PUSH1 0x20 ADD PUSH1 0x40 MLOAD DUP1 SWAP2 SUB SWAP1 KECCAK256 DUP2 SWAP1 SSTORE POP POP POP JUMP JUMPDEST PUSH0 PUSH1 0x40 MLOAD SWAP1 POP SWAP1 JUMP JUMPDEST PUSH0 PUSH0 REVERT JUMPDEST PUSH0 PUSH0 REVERT JUMPDEST PUSH0 DUP2 SWAP1 POP SWAP2 SWAP1 POP JUMP JUMPDEST PUSH2 0x2B6 DUP2 PUSH2 0x2A4 JUMP JUMPDEST DUP2 EQ PUSH2 0x2C0 JUMPI PUSH0 PUSH0 REVERT JUMPDEST POP JUMP JUMPDEST PUSH0 DUP2 CALLDATALOAD SWAP1 POP PUSH2 0x2D1 DUP2 PUSH2 0x2AD JUMP JUMPDEST SWAP3 SWAP2 POP POP JUMP JUMPDEST PUSH0 PUSH1 0x20 DUP3 DUP5 SUB SLT ISZERO PUSH2 0x2EC JUMPI PUSH2 0x2EB PUSH2 0x29C JUMP JUMPDEST JUMPDEST PUSH0 PUSH2 0x2F9 DUP5 DUP3 DUP6 ADD PUSH2 0x2C3 JUMP JUMPDEST SWAP2 POP POP SWAP3 SWAP2 POP POP JUMP JUMPDEST PUSH0 DUP2 MLOAD SWAP1 POP SWAP2 SWAP1 POP JUMP JUMPDEST PUSH0 DUP3 DUP3 MSTORE PUSH1 0x20 DUP3 ADD SWAP1 POP SWAP3 SWAP2 POP POP JUMP JUMPDEST DUP3 DUP2 DUP4 MCOPY PUSH0 DUP4 DUP4 ADD MSTORE POP POP POP JUMP JUMPDEST PUSH0 PUSH1 0x1F NOT PUSH1 0x1F DUP4 ADD AND SWAP1 POP SWAP2 SWAP1 POP JUMP JUMPDEST PUSH0 PUSH2 0x344 DUP3 PUSH2 0x302 JUMP JUMPDEST PUSH2 0x34E DUP2 DUP6 PUSH2 0x30C JUMP JUMPDEST SWAP4 POP PUSH2 0x35E DUP2 DUP6 PUSH1 0x20 DUP7 ADD PUSH2 0x31C JUMP JUMPDEST PUSH2 0x367 DUP2 PUSH2 0x32A JUMP JUMPDEST DUP5 ADD SWAP2 POP POP SWAP3 SWAP2 POP POP JUMP JUMPDEST PUSH2 0x37B DUP2 PUSH2 0x2A4 JUMP JUMPDEST DUP3 MSTORE POP POP JUMP JUMPDEST PUSH0 PUSH1 0x40 DUP3 ADD SWAP1 POP DUP2 DUP2 SUB PUSH0 DUP4 ADD MSTORE PUSH2 0x399 DUP2 DUP6 PUSH2 0x33A JUMP JUMPDEST SWAP1 POP PUSH2 0x3A8 PUSH1 0x20 DUP4 ADD DUP5 PUSH2 0x372 JUMP JUMPDEST SWAP4 SWAP3 POP POP POP JUMP JUMPDEST PUSH0 PUSH1 0x20 DUP3 ADD SWAP1 POP PUSH2 0x3C2 PUSH0 DUP4 ADD DUP5 PUSH2 0x372 JUMP JUMPDEST SWAP3 SWAP2 POP POP JUMP JUMPDEST PUSH0 PUSH0 REVERT JUMPDEST PUSH0 PUSH0 REVERT JUMPDEST PUSH32 0x4E487B7100000000000000000000000000000000000000000000000000000000 PUSH0 MSTORE PUSH1 0x41 PUSH1 0x4 MSTORE PUSH1 0x24 PUSH0 REVERT JUMPDEST PUSH2 0x406 DUP3 PUSH2 0x32A JUMP JUMPDEST DUP2 ADD DUP2 DUP2 LT PUSH8 0xFFFFFFFFFFFFFFFF DUP3 GT OR ISZERO PUSH2 0x425 JUMPI PUSH2 0x424 PUSH2 0x3D0 JUMP JUMPDEST JUMPDEST DUP1 PUSH1 0x40 MSTORE POP POP POP JUMP JUMPDEST PUSH0 PUSH2 0x437 PUSH2 0x293 JUMP JUMPDEST SWAP1 POP PUSH2 0x443 DUP3 DUP3 PUSH2 0x3FD JUMP JUMPDEST SWAP2 SWAP1 POP JUMP JUMPDEST PUSH0 PUSH8 0xFFFFFFFFFFFFFFFF DUP3 GT ISZERO PUSH2 0x462 JUMPI PUSH2 0x461 PUSH2 0x3D0 JUMP JUMPDEST JUMPDEST PUSH2 0x46B DUP3 PUSH2 0x32A JUMP JUMPDEST SWAP1 POP PUSH1 0x20 DUP2 ADD SWAP1 POP SWAP2 SWAP1 POP JUMP JUMPDEST DUP3 DUP2 DUP4 CALLDATACOPY PUSH0 DUP4 DUP4 ADD MSTORE POP POP POP JUMP JUMPDEST PUSH0 PUSH2 0x498 PUSH2 0x493 DUP5 PUSH2 0x448 JUMP JUMPDEST PUSH2 0x42E JUMP JUMPDEST SWAP1 POP DUP3 DUP2 MSTORE PUSH1 0x20 DUP2 ADD DUP5 DUP5 DUP5 ADD GT ISZERO PUSH2 0x4B4 JUMPI PUSH2 0x4B3 PUSH2 0x3CC JUMP JUMPDEST JUMPDEST PUSH2 0x4BF DUP5 DUP3 DUP6 PUSH2 0x478 JUMP JUMPDEST POP SWAP4 SWAP3 POP POP POP JUMP JUMPDEST PUSH0 DUP3 PUSH1 0x1F DUP4 ADD SLT PUSH2 0x4DB JUMPI PUSH2 0x4DA PUSH2 0x3C8 JUMP JUMPDEST JUMPDEST DUP2 CALLDATALOAD PUSH2 0x4EB DUP5 DUP3 PUSH1 0x20 DUP7 ADD PUSH2 0x486 JUMP JUMPDEST SWAP2 POP POP SWAP3 SWAP2 POP POP JUMP JUMPDEST PUSH0 PUSH1 0x20 DUP3 DUP5 SUB SLT ISZERO PUSH2 0x509 JUMPI PUSH2 0x508 PUSH2 0x29C JUMP JUMPDEST JUMPDEST PUSH0 DUP3 ADD CALLDATALOAD PUSH8 0xFFFFFFFFFFFFFFFF DUP2 GT ISZERO PUSH2 0x526 JUMPI PUSH2 0x525 PUSH2 0x2A0 JUMP JUMPDEST JUMPDEST PUSH2 0x532 DUP5 DUP3 DUP6 ADD PUSH2 0x4C7 JUMP JUMPDEST SWAP2 POP POP SWAP3 SWAP2 POP POP JUMP JUMPDEST PUSH0 PUSH0 PUSH1 0x40 DUP4 DUP6 SUB SLT ISZERO PUSH2 0x551 JUMPI PUSH2 0x550 PUSH2 0x29C JUMP JUMPDEST JUMPDEST PUSH0 DUP4 ADD CALLDATALOAD PUSH8 0xFFFFFFFFFFFFFFFF DUP2 GT ISZERO PUSH2 0x56E JUMPI PUSH2 0x56D PUSH2 0x2A0 JUMP JUMPDEST JUMPDEST PUSH2 0x57A DUP6 DUP3 DUP7 ADD PUSH2 0x4C7 JUMP JUMPDEST SWAP3 POP POP PUSH1 0x20 PUSH2 0x58B DUP6 DUP3 DUP7 ADD PUSH2 0x2C3 JUMP JUMPDEST SWAP2 POP POP SWAP3 POP SWAP3 SWAP1 POP JUMP JUMPDEST PUSH32 0x4E487B7100000000000000000000000000000000000000000000000000000000 PUSH0 MSTORE PUSH1 0x22 PUSH1 0x4 MSTORE PUSH1 0x24 PUSH0 REVERT JUMPDEST PUSH0 PUSH1 0x2 DUP3 DIV SWAP1 POP PUSH1 0x1 DUP3 AND DUP1 PUSH2 0x5D9 JUMPI PUSH1 0x7F DUP3 AND SWAP2 POP JUMPDEST PUSH1 0x20 DUP3 LT DUP2 SUB PUSH2 0x5EC JUMPI PUSH2 0x5EB PUSH2 0x595 JUMP JUMPDEST JUMPDEST POP SWAP2 SWAP1 POP JUMP JUMPDEST PUSH32 0x4E487B7100000000000000000000000000000000000000000000000000000000 PUSH0 MSTORE PUSH1 0x11 PUSH1 0x4 MSTORE PUSH1 0x24 PUSH0 REVERT JUMPDEST PUSH0 PUSH2 0x629 DUP3 PUSH2 0x2A4 JUMP JUMPDEST SWAP2 POP PUSH2 0x634 DUP4 PUSH2 0x2A4 JUMP JUMPDEST SWAP3 POP DUP3 DUP3 ADD SWAP1 POP DUP1 DUP3 GT ISZERO PUSH2 0x64C JUMPI PUSH2 0x64B PUSH2 0x5F2 JUMP JUMPDEST JUMPDEST SWAP3 SWAP2 POP POP JUMP JUMPDEST PUSH0 DUP2 SWAP1 POP DUP2 PUSH0 MSTORE PUSH1 0x20 PUSH0 KECCAK256 SWAP1 POP SWAP2 SWAP1 POP JUMP JUMPDEST PUSH0 PUSH1 0x20 PUSH1 0x1F DUP4 ADD DIV SWAP1 POP SWAP2 SWAP1 POP JUMP JUMPDEST PUSH0 DUP3 DUP3 SHL SWAP1 POP SWAP3 SWAP2 POP POP JUMP JUMPDEST PUSH0 PUSH1 0x8 DUP4 MUL PUSH2 0x6AE PUSH32 0xFFFFFFFFFFFFFFFFFFFFFFFFFFFFFFFFFFFFFFFFFFFFFFFFFFFFFFFFFFFFFFFF DUP3 PUSH2 0x673 JUMP JUMPDEST PUSH2 0x6B8 DUP7 DUP4 PUSH2 0x673 JUMP JUMPDEST SWAP6 POP DUP1 NOT DUP5 AND SWAP4 POP DUP1 DUP7 AND DUP5 OR SWAP3 POP POP POP SWAP4 SWAP3 POP POP POP JUMP JUMPDEST PUSH0 DUP2 SWAP1 POP SWAP2 SWAP1 POP JUMP JUMPDEST PUSH0 PUSH2 0x6F3 PUSH2 0x6EE PUSH2 0x6E9 DUP5 PUSH2 0x2A4 JUMP JUMPDEST PUSH2 0x6D0 JUMP JUMPDEST PUSH2 0x2A4 JUMP JUMPDEST SWAP1 POP SWAP2 SWAP1 POP JUMP JUMPDEST PUSH0 DUP2 SWAP1 POP SWAP2 SWAP1 POP JUMP JUMPDEST PUSH2 0x70C DUP4 PUSH2 0x6D9 JUMP JUMPDEST PUSH2 0x720 PUSH2 0x718 DUP3 PUSH2 0x6FA JUMP JUMPDEST DUP5 DUP5 SLOAD PUSH2 0x67F JUMP JUMPDEST DUP3 SSTORE POP POP POP POP JUMP JUMPDEST PUSH0 PUSH0 SWAP1 POP SWAP1 JUMP JUMPDEST PUSH2 0x737 PUSH2 0x728 JUMP JUMPDEST PUSH2 0x742 DUP2 DUP5 DUP5 PUSH2 0x703 JUMP JUMPDEST POP POP POP JUMP JUMPDEST JUMPDEST DUP2 DUP2 LT ISZERO PUSH2 0x765 JUMPI PUSH2 0x75A PUSH0 DUP3 PUSH2 0x72F JUMP JUMPDEST PUSH1 0x1 DUP2 ADD SWAP1 POP PUSH2 0x748 JUMP JUMPDEST POP POP JUMP JUMPDEST PUSH1 0x1F DUP3 GT ISZERO PUSH2 0x7AA JUMPI PUSH2 0x77B DUP2 PUSH2 0x652 JUMP JUMPDEST PUSH2 0x784 DUP5 PUSH2 0x664 JUMP JUMPDEST DUP2 ADD PUSH1 0x20 DUP6 LT ISZERO PUSH2 0x793 JUMPI DUP2 SWAP1 POP JUMPDEST PUSH2 0x7A7 PUSH2 0x79F DUP6 PUSH2 0x664 JUMP JUMPDEST DUP4 ADD DUP3 PUSH2 0x747 JUMP JUMPDEST POP POP JUMPDEST POP POP POP JUMP JUMPDEST PUSH0 DUP3 DUP3 SHR SWAP1 POP SWAP3 SWAP2 POP POP JUMP JUMPDEST PUSH0 PUSH2 0x7CA PUSH0 NOT DUP5 PUSH1 0x8 MUL PUSH2 0x7AF JUMP JUMPDEST NOT DUP1 DUP4 AND SWAP2 POP POP SWAP3 SWAP2 POP POP JUMP JUMPDEST PUSH0 PUSH2 0x7E2 DUP4 DUP4 PUSH2 0x7BB JUMP JUMPDEST SWAP2 POP DUP3 PUSH1 0x2 MUL DUP3 OR SWAP1 POP SWAP3 SWAP2 POP POP JUMP JUMPDEST PUSH2 0x7FB DUP3 PUSH2 0x302 JUMP JUMPDEST PUSH8 0xFFFFFFFFFFFFFFFF DUP2 GT ISZERO PUSH2 0x814 JUMPI PUSH2 0x813 PUSH2 0x3D0 JUMP JUMPDEST JUMPDEST PUSH2 0x81E DUP3 SLOAD PUSH2 0x5C2 JUMP JUMPDEST PUSH2 0x829 DUP3 DUP3 DUP6 PUSH2 0x769 JUMP JUMPDEST PUSH0 PUSH1 0x20 SWAP1 POP PUSH1 0x1F DUP4 GT PUSH1 0x1 DUP2 EQ PUSH2 0x85A JUMPI PUSH0 DUP5 ISZERO PUSH2 0x848 JUMPI DUP3 DUP8 ADD MLOAD SWAP1 POP JUMPDEST PUSH2 0x852 DUP6 DUP3 PUSH2 0x7D7 JUMP JUMPDEST DUP7 SSTORE POP PUSH2 0x8B9 JUMP JUMPDEST PUSH1 0x1F NOT DUP5 AND PUSH2 0x868 DUP7 PUSH2 0x652 JUMP JUMPDEST PUSH0 JUMPDEST DUP3 DUP2 LT ISZERO PUSH2 0x88F JUMPI DUP5 DUP10 ADD MLOAD DUP3 SSTORE PUSH1 0x1 DUP3 ADD SWAP2 POP PUSH1 0x20 DUP6 ADD SWAP5 POP PUSH1 0x20 DUP2 ADD SWAP1 POP PUSH2 0x86A JUMP JUMPDEST DUP7 DUP4 LT ISZERO PUSH2 0x8AC JUMPI DUP5 DUP10 ADD MLOAD PUSH2 0x8A8 PUSH1 0x1F DUP10 AND DUP3 PUSH2 0x7BB JUMP JUMPDEST DUP4 SSTORE POP JUMPDEST PUSH1 0x1 PUSH1 0x2 DUP9 MUL ADD DUP9 SSTORE POP POP POP JUMPDEST POP POP POP POP POP POP JUMP JUMPDEST PUSH0 DUP2 SWAP1 POP SWAP3 SWAP2 POP POP JUMP JUMPDEST PUSH0 PUSH2 0x8D5 DUP3 PUSH2 0x302 JUMP JUMPDEST PUSH2 0x8DF DUP2 DUP6 PUSH2 0x8C1 JUMP JUMPDEST SWAP4 POP PUSH2 0x8EF DUP2 DUP6 PUSH1 0x20 DUP7 ADD PUSH2 0x31C JUMP JUMPDEST DUP1 DUP5 ADD SWAP2 POP POP SWAP3 SWAP2 POP POP JUMP JUMPDEST PUSH0 PUSH2 0x906 DUP3 DUP5 PUSH2 0x8CB JUMP JUMPDEST SWAP2 POP DUP2 SWAP1 POP SWAP3 SWAP2 POP POP JUMP INVALID LOG2 PUSH5 0x6970667358 0x22 SLT KECCAK256 PUSH18 0x1CA41A2215AEFDEB41EFD4FB07396E14DFD9 0xD3 ADD 0x23 BYTE MSTORE 0xC1 SWAP12 SWAP7 OR LOG0 GASLIMIT SUB DUP10 PUSH5 0x736F6C6343 STOP ADDMOD 0x1E STOP CALLER "
		},
		"gasEstimates": {
			"creation": {
				"codeDepositCost": "475000",
				"executionCost": "509",
				"totalCost": "475509"
			},
			"external": {
				"addperson(string,uint256)": "infinite",
				"nameToFavouriteNumber(string)": "infinite",
				"person(uint256)": "infinite",
				"retreive()": "2453",
				"store(uint256)": "infinite"
			}
		},
		"methodIdentifiers": {
			"addperson(string,uint256)": "e1b3202a",
			"nameToFavouriteNumber(string)": "b2ac62ef",
			"person(uint256)": "092a1820",
			"retreive()": "b05784b8",
			"store(uint256)": "6057361d"
		}
	},
	"abi": [
		{
			"inputs": [
				{
					"internalType": "string",
					"name": "_name",
					"type": "string"
				},
				{
					"internalType": "uint256",
					"name": "_favouriteNumber",
					"type": "uint256"
				}
			],
			"name": "addperson",
			"outputs": [],
			"stateMutability": "nonpayable",
			"type": "function"
		},
		{
			"inputs": [
				{
					"internalType": "string",
					"name": "",
					"type": "string"
				}
			],
			"name": "nameToFavouriteNumber",
			"outputs": [
				{
					"internalType": "uint256",
					"name": "",
					"type": "uint256"
				}
			],
			"stateMutability": "view",
			"type": "function"
		},
		{
			"inputs": [
				{
					"internalType": "uint256",
					"name": "",
					"type": "uint256"
				}
			],
			"name": "person",
			"outputs": [
				{
					"internalType": "string",
					"name": "name",
					"type": "string"
				},
				{
					"internalType": "uint256",
					"name": "favouriteNumber",
					"type": "uint256"
				}
			],
			"stateMutability": "view",
			"type": "function"
		},
		{
			"inputs": [],
			"name": "retreive",
			"outputs": [
				{
					"internalType": "uint256",
					"name": "",
					"type": "uint256"
				}
			],
			"stateMutability": "view",
			"type": "function"
		},
		{
			"inputs": [
				{
					"internalType": "uint256",
					"name": "_favouriteNumber",
					"type": "uint256"
				}
			],
			"name": "store",
			"outputs": [],
			"stateMutability": "nonpayable",
			"type": "function"
		}
	]
}